{
  "_format": "hh-sol-artifact-1",
  "contractName": "ArbitrumTapGame",
  "sourceName": "contracts/ArbitrumTapGame.sol",
  "abi": [
    {
      "inputs": [],
      "stateMutability": "nonpayable",
      "type": "constructor"
    },
    {
      "inputs": [
        {
          "internalType": "address",
          "name": "sender",
          "type": "address"
        },
        {
          "internalType": "uint256",
          "name": "tokenId",
          "type": "uint256"
        },
        {
          "internalType": "address",
          "name": "owner",
          "type": "address"
        }
      ],
      "name": "ERC721IncorrectOwner",
      "type": "error"
    },
    {
      "inputs": [
        {
          "internalType": "address",
          "name": "operator",
          "type": "address"
        },
        {
          "internalType": "uint256",
          "name": "tokenId",
          "type": "uint256"
        }
      ],
      "name": "ERC721InsufficientApproval",
      "type": "error"
    },
    {
      "inputs": [
        {
          "internalType": "address",
          "name": "approver",
          "type": "address"
        }
      ],
      "name": "ERC721InvalidApprover",
      "type": "error"
    },
    {
      "inputs": [
        {
          "internalType": "address",
          "name": "operator",
          "type": "address"
        }
      ],
      "name": "ERC721InvalidOperator",
      "type": "error"
    },
    {
      "inputs": [
        {
          "internalType": "address",
          "name": "owner",
          "type": "address"
        }
      ],
      "name": "ERC721InvalidOwner",
      "type": "error"
    },
    {
      "inputs": [
        {
          "internalType": "address",
          "name": "receiver",
          "type": "address"
        }
      ],
      "name": "ERC721InvalidReceiver",
      "type": "error"
    },
    {
      "inputs": [
        {
          "internalType": "address",
          "name": "sender",
          "type": "address"
        }
      ],
      "name": "ERC721InvalidSender",
      "type": "error"
    },
    {
      "inputs": [
        {
          "internalType": "uint256",
          "name": "tokenId",
          "type": "uint256"
        }
      ],
      "name": "ERC721NonexistentToken",
      "type": "error"
    },
    {
      "inputs": [
        {
          "internalType": "address",
          "name": "owner",
          "type": "address"
        }
      ],
      "name": "OwnableInvalidOwner",
      "type": "error"
    },
    {
      "inputs": [
        {
          "internalType": "address",
          "name": "account",
          "type": "address"
        }
      ],
      "name": "OwnableUnauthorizedAccount",
      "type": "error"
    },
    {
      "inputs": [],
      "name": "ReentrancyGuardReentrantCall",
      "type": "error"
    },
    {
      "anonymous": false,
      "inputs": [
        {
          "indexed": true,
          "internalType": "address",
          "name": "owner",
          "type": "address"
        },
        {
          "indexed": true,
          "internalType": "address",
          "name": "approved",
          "type": "address"
        },
        {
          "indexed": true,
          "internalType": "uint256",
          "name": "tokenId",
          "type": "uint256"
        }
      ],
      "name": "Approval",
      "type": "event"
    },
    {
      "anonymous": false,
      "inputs": [
        {
          "indexed": true,
          "internalType": "address",
          "name": "owner",
          "type": "address"
        },
        {
          "indexed": true,
          "internalType": "address",
          "name": "operator",
          "type": "address"
        },
        {
          "indexed": false,
          "internalType": "bool",
          "name": "approved",
          "type": "bool"
        }
      ],
      "name": "ApprovalForAll",
      "type": "event"
    },
    {
      "anonymous": false,
      "inputs": [
        {
          "indexed": true,
          "internalType": "address",
          "name": "player",
          "type": "address"
        },
        {
          "indexed": false,
          "internalType": "uint256",
          "name": "milestone",
          "type": "uint256"
        },
        {
          "indexed": false,
          "internalType": "uint256",
          "name": "reward",
          "type": "uint256"
        }
      ],
      "name": "MilestoneAchieved",
      "type": "event"
    },
    {
      "anonymous": false,
      "inputs": [
        {
          "indexed": true,
          "internalType": "address",
          "name": "player",
          "type": "address"
        },
        {
          "indexed": false,
          "internalType": "uint256",
          "name": "tokenId",
          "type": "uint256"
        },
        {
          "indexed": false,
          "internalType": "uint256",
          "name": "milestone",
          "type": "uint256"
        },
        {
          "indexed": false,
          "internalType": "uint256",
          "name": "reward",
          "type": "uint256"
        }
      ],
      "name": "NFTMinted",
      "type": "event"
    },
    {
      "anonymous": false,
      "inputs": [
        {
          "indexed": true,
          "internalType": "address",
          "name": "previousOwner",
          "type": "address"
        },
        {
          "indexed": true,
          "internalType": "address",
          "name": "newOwner",
          "type": "address"
        }
      ],
      "name": "OwnershipTransferred",
      "type": "event"
    },
    {
      "anonymous": false,
      "inputs": [
        {
          "indexed": true,
          "internalType": "address",
          "name": "player",
          "type": "address"
        },
        {
          "indexed": false,
          "internalType": "uint256",
          "name": "newLevel",
          "type": "uint256"
        },
        {
          "indexed": false,
          "internalType": "uint256",
          "name": "requiredTaps",
          "type": "uint256"
        }
      ],
      "name": "PlayerLevelUpdated",
      "type": "event"
    },
    {
      "anonymous": false,
      "inputs": [
        {
          "indexed": true,
          "internalType": "address",
          "name": "player",
          "type": "address"
        },
        {
          "indexed": false,
          "internalType": "uint256",
          "name": "newScore",
          "type": "uint256"
        }
      ],
      "name": "PlayerScoreUpdated",
      "type": "event"
    },
    {
      "anonymous": false,
      "inputs": [
        {
          "indexed": true,
          "internalType": "address",
          "name": "from",
          "type": "address"
        },
        {
          "indexed": true,
          "internalType": "address",
          "name": "to",
          "type": "address"
        },
        {
          "indexed": true,
          "internalType": "uint256",
          "name": "tokenId",
          "type": "uint256"
        }
      ],
      "name": "Transfer",
      "type": "event"
    },
    {
      "inputs": [
        {
          "internalType": "address",
          "name": "to",
          "type": "address"
        },
        {
          "internalType": "uint256",
          "name": "tokenId",
          "type": "uint256"
        }
      ],
      "name": "approve",
      "outputs": [],
      "stateMutability": "nonpayable",
      "type": "function"
    },
    {
      "inputs": [
        {
          "internalType": "address",
          "name": "owner",
          "type": "address"
        }
      ],
      "name": "balanceOf",
      "outputs": [
        {
          "internalType": "uint256",
          "name": "",
          "type": "uint256"
        }
      ],
      "stateMutability": "view",
      "type": "function"
    },
    {
      "inputs": [],
      "name": "emergencyPause",
      "outputs": [],
      "stateMutability": "nonpayable",
      "type": "function"
    },
    {
      "inputs": [
        {
          "internalType": "uint256",
          "name": "tokenId",
          "type": "uint256"
        }
      ],
      "name": "getApproved",
      "outputs": [
        {
          "internalType": "address",
          "name": "",
          "type": "address"
        }
      ],
      "stateMutability": "view",
      "type": "function"
    },
    {
      "inputs": [],
      "name": "getMilestonesAndRewards",
      "outputs": [
        {
          "internalType": "uint256[]",
          "name": "_milestones",
          "type": "uint256[]"
        },
        {
          "internalType": "uint256[]",
          "name": "_rewards",
          "type": "uint256[]"
        }
      ],
      "stateMutability": "view",
      "type": "function"
    },
    {
      "inputs": [
        {
          "internalType": "address",
          "name": "player",
          "type": "address"
        }
      ],
      "name": "getNextMilestone",
      "outputs": [
        {
          "internalType": "uint256",
          "name": "nextMilestone",
          "type": "uint256"
        },
        {
          "internalType": "uint256",
          "name": "remainingTaps",
          "type": "uint256"
        }
      ],
      "stateMutability": "view",
      "type": "function"
    },
    {
      "inputs": [
        {
          "internalType": "address",
          "name": "player",
          "type": "address"
        }
      ],
      "name": "getPlayerStats",
      "outputs": [
        {
          "internalType": "uint256",
          "name": "totalTaps",
          "type": "uint256"
        },
        {
          "internalType": "uint256",
          "name": "currentLevel",
          "type": "uint256"
        },
        {
          "internalType": "uint256",
          "name": "nftsMinted",
          "type": "uint256"
        },
        {
          "internalType": "uint256",
          "name": "lastMintTimestamp",
          "type": "uint256"
        },
        {
          "internalType": "uint256",
          "name": "lastLevelUpTimestamp",
          "type": "uint256"
        }
      ],
      "stateMutability": "view",
      "type": "function"
    },
    {
      "inputs": [],
      "name": "getTopPlayers",
      "outputs": [
        {
          "internalType": "address[]",
          "name": "",
          "type": "address[]"
        }
      ],
      "stateMutability": "view",
      "type": "function"
    },
    {
      "inputs": [
        {
          "internalType": "address",
          "name": "owner",
          "type": "address"
        },
        {
          "internalType": "address",
          "name": "operator",
          "type": "address"
        }
      ],
      "name": "isApprovedForAll",
      "outputs": [
        {
          "internalType": "bool",
          "name": "",
          "type": "bool"
        }
      ],
      "stateMutability": "view",
      "type": "function"
    },
    {
      "inputs": [
        {
          "internalType": "address",
          "name": "player",
          "type": "address"
        },
        {
          "internalType": "uint256",
          "name": "milestone",
          "type": "uint256"
        }
      ],
      "name": "isMilestoneAchieved",
      "outputs": [
        {
          "internalType": "bool",
          "name": "",
          "type": "bool"
        }
      ],
      "stateMutability": "view",
      "type": "function"
    },
    {
      "inputs": [
        {
          "internalType": "uint256",
          "name": "",
          "type": "uint256"
        }
      ],
      "name": "leaderboard",
      "outputs": [
        {
          "internalType": "uint256",
          "name": "",
          "type": "uint256"
        }
      ],
      "stateMutability": "view",
      "type": "function"
    },
    {
      "inputs": [
        {
          "internalType": "uint256",
          "name": "",
          "type": "uint256"
        }
      ],
      "name": "milestones",
      "outputs": [
        {
          "internalType": "uint256",
          "name": "",
          "type": "uint256"
        }
      ],
      "stateMutability": "view",
      "type": "function"
    },
    {
      "inputs": [
        {
          "internalType": "uint256",
          "name": "milestone",
          "type": "uint256"
        }
      ],
      "name": "mintNFT",
      "outputs": [],
      "stateMutability": "nonpayable",
      "type": "function"
    },
    {
      "inputs": [],
      "name": "name",
      "outputs": [
        {
          "internalType": "string",
          "name": "",
          "type": "string"
        }
      ],
      "stateMutability": "view",
      "type": "function"
    },
    {
      "inputs": [],
      "name": "owner",
      "outputs": [
        {
          "internalType": "address",
          "name": "",
          "type": "address"
        }
      ],
      "stateMutability": "view",
      "type": "function"
    },
    {
      "inputs": [
        {
          "internalType": "uint256",
          "name": "tokenId",
          "type": "uint256"
        }
      ],
      "name": "ownerOf",
      "outputs": [
        {
          "internalType": "address",
          "name": "",
          "type": "address"
        }
      ],
      "stateMutability": "view",
      "type": "function"
    },
    {
      "inputs": [
        {
          "internalType": "address",
          "name": "",
          "type": "address"
        }
      ],
      "name": "players",
      "outputs": [
        {
          "internalType": "uint256",
          "name": "totalTaps",
          "type": "uint256"
        },
        {
          "internalType": "uint256",
          "name": "currentLevel",
          "type": "uint256"
        },
        {
          "internalType": "uint256",
          "name": "nftsMinted",
          "type": "uint256"
        },
        {
          "internalType": "uint256",
          "name": "lastMintTimestamp",
          "type": "uint256"
        },
        {
          "internalType": "uint256",
          "name": "lastLevelUpTimestamp",
          "type": "uint256"
        }
      ],
      "stateMutability": "view",
      "type": "function"
    },
    {
      "inputs": [],
      "name": "renounceOwnership",
      "outputs": [],
      "stateMutability": "nonpayable",
      "type": "function"
    },
    {
      "inputs": [
        {
          "internalType": "uint256",
          "name": "",
          "type": "uint256"
        }
      ],
      "name": "rewards",
      "outputs": [
        {
          "internalType": "uint256",
          "name": "",
          "type": "uint256"
        }
      ],
      "stateMutability": "view",
      "type": "function"
    },
    {
      "inputs": [
        {
          "internalType": "address",
          "name": "from",
          "type": "address"
        },
        {
          "internalType": "address",
          "name": "to",
          "type": "address"
        },
        {
          "internalType": "uint256",
          "name": "tokenId",
          "type": "uint256"
        }
      ],
      "name": "safeTransferFrom",
      "outputs": [],
      "stateMutability": "nonpayable",
      "type": "function"
    },
    {
      "inputs": [
        {
          "internalType": "address",
          "name": "from",
          "type": "address"
        },
        {
          "internalType": "address",
          "name": "to",
          "type": "address"
        },
        {
          "internalType": "uint256",
          "name": "tokenId",
          "type": "uint256"
        },
        {
          "internalType": "bytes",
          "name": "data",
          "type": "bytes"
        }
      ],
      "name": "safeTransferFrom",
      "outputs": [],
      "stateMutability": "nonpayable",
      "type": "function"
    },
    {
      "inputs": [
        {
          "internalType": "address",
          "name": "operator",
          "type": "address"
        },
        {
          "internalType": "bool",
          "name": "approved",
          "type": "bool"
        }
      ],
      "name": "setApprovalForAll",
      "outputs": [],
      "stateMutability": "nonpayable",
      "type": "function"
    },
    {
      "inputs": [
        {
          "internalType": "bytes4",
          "name": "interfaceId",
          "type": "bytes4"
        }
      ],
      "name": "supportsInterface",
      "outputs": [
        {
          "internalType": "bool",
          "name": "",
          "type": "bool"
        }
      ],
      "stateMutability": "view",
      "type": "function"
    },
    {
      "inputs": [],
      "name": "symbol",
      "outputs": [
        {
          "internalType": "string",
          "name": "",
          "type": "string"
        }
      ],
      "stateMutability": "view",
      "type": "function"
    },
    {
      "inputs": [
        {
          "internalType": "uint256",
          "name": "tokenId",
          "type": "uint256"
        }
      ],
      "name": "tokenURI",
      "outputs": [
        {
          "internalType": "string",
          "name": "",
          "type": "string"
        }
      ],
      "stateMutability": "view",
      "type": "function"
    },
    {
      "inputs": [
        {
          "internalType": "uint256",
          "name": "",
          "type": "uint256"
        }
      ],
      "name": "topPlayers",
      "outputs": [
        {
          "internalType": "address",
          "name": "",
          "type": "address"
        }
      ],
      "stateMutability": "view",
      "type": "function"
    },
    {
      "inputs": [
        {
          "internalType": "address",
          "name": "from",
          "type": "address"
        },
        {
          "internalType": "address",
          "name": "to",
          "type": "address"
        },
        {
          "internalType": "uint256",
          "name": "tokenId",
          "type": "uint256"
        }
      ],
      "name": "transferFrom",
      "outputs": [],
      "stateMutability": "nonpayable",
      "type": "function"
    },
    {
      "inputs": [
        {
          "internalType": "address",
          "name": "newOwner",
          "type": "address"
        }
      ],
      "name": "transferOwnership",
      "outputs": [],
      "stateMutability": "nonpayable",
      "type": "function"
    },
    {
      "inputs": [
        {
          "internalType": "uint256",
          "name": "newLevel",
          "type": "uint256"
        }
      ],
      "name": "updateLevel",
      "outputs": [],
      "stateMutability": "nonpayable",
      "type": "function"
    },
    {
      "inputs": [
        {
          "internalType": "uint256[]",
          "name": "newRewards",
          "type": "uint256[]"
        }
      ],
      "name": "updateRewards",
      "outputs": [],
      "stateMutability": "nonpayable",
      "type": "function"
    },
    {
      "inputs": [
        {
          "internalType": "uint256",
          "name": "newTapCount",
          "type": "uint256"
        }
      ],
      "name": "updateTaps",
      "outputs": [],
      "stateMutability": "nonpayable",
      "type": "function"
    },
    {
      "inputs": [],
      "name": "withdrawBalance",
      "outputs": [],
      "stateMutability": "nonpayable",
      "type": "function"
    },
    {
      "stateMutability": "payable",
      "type": "receive"
    }
  ],
  "bytecode": "0x6101a0604052606460809081526101f460a0526103e860c05261138860e0526127106101005261c35061012052620186a06101405262030d4061016052620493e0610180526200005490600890600962000209565b50604080516101208101825266038d7ea4c6800081526611c37937e080006020820152662386f26fc100009181019190915266b1a2bc2ec50000606082015267016345785d8a000060808201526706f05b59d3b2000060a0820152670de0b6b3a764000060c0820152671bc16d674ec8000060e08201526729a2241af62c0000610100820152620000e9906009908162000260565b50348015620000f757600080fd5b50336040518060400160405280601581526020017f417262697472756d20546170205461702047616d6500000000000000000000008152506040518060400160405280600681526020016504152425441560d41b81525081600090816200015f919062000365565b5060016200016e828262000365565b5050506001600160a01b038116620001a057604051631e4fbdf760e01b81526000600482015260240160405180910390fd5b620001ab81620001b7565b50600160075562000431565b600680546001600160a01b038381166001600160a01b0319831681179093556040519116919082907f8be0079c531659141344cd1fd0a4f28419497f9722a3daafe3b4186f6b6457e090600090a35050565b8280548282559060005260206000209081019282156200024e579160200282015b828111156200024e578251829062ffffff169055916020019190600101906200022a565b506200025c929150620002a9565b5090565b8280548282559060005260206000209081019282156200024e579160200282015b828111156200024e57825182906001600160401b031690559160200191906001019062000281565b5b808211156200025c5760008155600101620002aa565b634e487b7160e01b600052604160045260246000fd5b600181811c90821680620002eb57607f821691505b6020821081036200030c57634e487b7160e01b600052602260045260246000fd5b50919050565b601f8211156200036057600081815260208120601f850160051c810160208610156200033b5750805b601f850160051c820191505b818110156200035c5782815560010162000347565b5050505b505050565b81516001600160401b03811115620003815762000381620002c0565b6200039981620003928454620002d6565b8462000312565b602080601f831160018114620003d15760008415620003b85750858301515b600019600386901b1c1916600185901b1785556200035c565b600085815260208120601f198616915b828110156200040257888601518255948401946001909101908401620003e1565b5085821015620004215787850151600019600388901b60f8161c191681555b5050505050600190811b01905550565b6122a780620004416000396000f3fe6080604052600436106101e75760003560e01c80638da5cb5b11610102578063c4bfa99411610095578063e985e9c511610064578063e985e9c51461065a578063f2fde38b1461067a578063f301af421461069a578063f67093a8146106ba57600080fd5b8063c4bfa994146105ad578063c87b56dd146105d0578063e2eb41ff146105f0578063e89e4ed61461063a57600080fd5b8063a22cb465116100d1578063a22cb46514610520578063af137ca814610540578063b88d4fde14610560578063bf3683991461058057600080fd5b80638da5cb5b146104ad57806392642744146104cb57806392e0150b146104eb57806395d89b411461050b57600080fd5b806351858e271161017a578063715018a611610149578063715018a614610421578063757ac974146104365780637f6838ca1461046b57806388e814e61461048b57600080fd5b806351858e27146103a95780635fd8c710146103be5780636352211e146103d357806370a08231146103f357600080fd5b806323b872dd116101b657806323b872dd146102a457806342842e0e146102c45780634730244e146102e45780634fd66eae1461032e57600080fd5b806301ffc9a7146101f357806306fdde0314610228578063081812fc1461024a578063095ea7b31461028257600080fd5b366101ee57005b600080fd5b3480156101ff57600080fd5b5061021361020e366004611d50565b6106da565b60405190151581526020015b60405180910390f35b34801561023457600080fd5b5061023d6106eb565b60405161021f9190611dbd565b34801561025657600080fd5b5061026a610265366004611dd0565b61077d565b6040516001600160a01b03909116815260200161021f565b34801561028e57600080fd5b506102a261029d366004611e05565b6107a6565b005b3480156102b057600080fd5b506102a26102bf366004611e2f565b6107b5565b3480156102d057600080fd5b506102a26102df366004611e2f565b610845565b3480156102f057600080fd5b506102136102ff366004611e05565b6001600160a01b03919091166000908152600b6020908152604080832093835260039093019052205460ff1690565b34801561033a57600080fd5b50610381610349366004611e6b565b6001600160a01b03166000908152600b6020526040902080546001820154600283015460048401546005909401549294919390929091565b604080519586526020860194909452928401919091526060830152608082015260a00161021f565b3480156103b557600080fd5b506102a2610865565b3480156103ca57600080fd5b506102a261086f565b3480156103df57600080fd5b5061026a6103ee366004611dd0565b610966565b3480156103ff57600080fd5b5061041361040e366004611e6b565b610971565b60405190815260200161021f565b34801561042d57600080fd5b506102a26109b9565b34801561044257600080fd5b50610456610451366004611e6b565b6109cb565b6040805192835260208301919091520161021f565b34801561047757600080fd5b506102a2610486366004611e86565b610a88565b34801561049757600080fd5b506104a0610aed565b60405161021f9190611efb565b3480156104b957600080fd5b506006546001600160a01b031661026a565b3480156104d757600080fd5b506102a26104e6366004611dd0565b610b4e565b3480156104f757600080fd5b506102a2610506366004611dd0565b610e8c565b34801561051757600080fd5b5061023d61100d565b34801561052c57600080fd5b506102a261053b366004611f48565b61101c565b34801561054c57600080fd5b5061026a61055b366004611dd0565b611027565b34801561056c57600080fd5b506102a261057b366004611f9a565b611051565b34801561058c57600080fd5b5061041361059b366004611dd0565b600c6020526000908152604090205481565b3480156105b957600080fd5b506105c2611069565b60405161021f9291906120b1565b3480156105dc57600080fd5b5061023d6105eb366004611dd0565b61111c565b3480156105fc57600080fd5b5061038161060b366004611e6b565b600b60205260009081526040902080546001820154600283015460048401546005909401549293919290919085565b34801561064657600080fd5b50610413610655366004611dd0565b611184565b34801561066657600080fd5b506102136106753660046120df565b6111a5565b34801561068657600080fd5b506102a2610695366004611e6b565b6111d3565b3480156106a657600080fd5b506104136106b5366004611dd0565b61120e565b3480156106c657600080fd5b506102a26106d5366004611dd0565b61121e565b60006106e5826112db565b92915050565b6060600080546106fa90612112565b80601f016020809104026020016040519081016040528092919081815260200182805461072690612112565b80156107735780601f1061074857610100808354040283529160200191610773565b820191906000526020600020905b81548152906001019060200180831161075657829003601f168201915b5050505050905090565b60006107888261132b565b506000828152600460205260409020546001600160a01b03166106e5565b6107b1828233611364565b5050565b6001600160a01b0382166107e457604051633250574960e11b8152600060048201526024015b60405180910390fd5b60006107f1838333611371565b9050836001600160a01b0316816001600160a01b03161461083f576040516364283d7b60e01b81526001600160a01b03808616600483015260248201849052821660448201526064016107db565b50505050565b61086083838360405180602001604052806000815250611051565b505050565b61086d61146a565b565b61087761146a565b47806108be5760405162461bcd60e51b81526020600482015260166024820152754e6f2062616c616e636520746f20776974686472617760501b60448201526064016107db565b60006108d26006546001600160a01b031690565b6001600160a01b03168260405160006040518083038185875af1925050503d806000811461091c576040519150601f19603f3d011682016040523d82523d6000602084013e610921565b606091505b50509050806107b15760405162461bcd60e51b815260206004820152601160248201527015da5d1a191c985dd85b0819985a5b1959607a1b60448201526064016107db565b60006106e58261132b565b60006001600160a01b03821661099d576040516322718ad960e21b8152600060048201526024016107db565b506001600160a01b031660009081526003602052604090205490565b6109c161146a565b61086d6000611497565b6001600160a01b0381166000908152600b60205260408120548190815b600854811015610a7b578160088281548110610a0657610a0661214c565b90600052602060002001541115610a695760088181548110610a2a57610a2a61214c565b906000526020600020015493508160088281548110610a4b57610a4b61214c565b9060005260206000200154610a609190612178565b92505050915091565b80610a738161218b565b9150506109e8565b5060009485945092505050565b610a9061146a565b6008548114610ae15760405162461bcd60e51b815260206004820152601d60248201527f52657761726473206172726179206c656e677468206d69736d6174636800000060448201526064016107db565b61086060098383611cda565b6060600d80548060200260200160405190810160405280929190818152602001828054801561077357602002820191906000526020600020905b81546001600160a01b03168152600190910190602001808311610b27575050505050905090565b610b566114e9565b806000805b600854811015610ba4578260088281548110610b7957610b7961214c565b906000526020600020015403610b925760019150610ba4565b80610b9c8161218b565b915050610b5b565b5080610be65760405162461bcd60e51b8152602060048201526011602482015270496e76616c6964206d696c6573746f6e6560781b60448201526064016107db565b336000818152600b60209081526040808320878452600301909152902054849060ff1615610c565760405162461bcd60e51b815260206004820152601a60248201527f4d696c6573746f6e6520616c726561647920616368696576656400000000000060448201526064016107db565b336000818152600b60205260409020548690811115610cb75760405162461bcd60e51b815260206004820152601f60248201527f496e73756666696369656e74207461707320666f72206d696c6573746f6e650060448201526064016107db565b336000818152600b602081815260408084208c8552600381018352908420805460ff19166001179055938352526002909101805491610cf58361218b565b9091555050336000908152600b6020526040812042600490910155600a805491610d1e8361218b565b9091555050600a54610d303382611513565b6000805b600854811015610d99578960088281548110610d5257610d5261214c565b906000526020600020015403610d875760098181548110610d7557610d7561214c565b90600052602060002001549150610d99565b80610d918161218b565b915050610d34565b50804710610e3457604051600090339083908381818185875af1925050503d8060008114610de3576040519150601f19603f3d011682016040523d82523d6000602084013e610de8565b606091505b5050905080610e325760405162461bcd60e51b815260206004820152601660248201527514995dd85c99081d1c985b9cd9995c8819985a5b195960521b60448201526064016107db565b505b60408051838152602081018b905290810182905233907f7bc3ddf0bf2ada973906c61001cd8f787646720bb7da90229e5bf81fa71bab6d9060600160405180910390a25050505050505050610e896001600755565b50565b336000908152600b60205260409020600101548111610eed5760405162461bcd60e51b815260206004820152601860248201527f4e6577206c6576656c206d75737420626520686967686572000000000000000060448201526064016107db565b6032811115610f345760405162461bcd60e51b815260206004820152601360248201527204d6178696d756d206c6576656c20697320353606c1b60448201526064016107db565b6000610f4082806121a4565b610f4b9060646121a4565b336000908152600b6020526040902054909150811115610fad5760405162461bcd60e51b815260206004820181905260248201527f496e73756666696369656e74207461707320666f722074686973206c6576656c60448201526064016107db565b336000818152600b6020908152604091829020600181018690554260059091015581518581529081018490527fadc1cecb18a16ddb3aed485d689de5e85fa74e0ff486319acd2e43a115edaf7d910160405180910390a26107b13361152d565b6060600180546106fa90612112565b6107b1338383611650565b600d818154811061103757600080fd5b6000918252602090912001546001600160a01b0316905081565b61105c8484846107b5565b61083f33858585856116ef565b60608060086009818054806020026020016040519081016040528092919081815260200182805480156110bb57602002820191906000526020600020905b8154815260200190600101908083116110a7575b505050505091508080548060200260200160405190810160405280929190818152602001828054801561110d57602002820191906000526020600020905b8154815260200190600101908083116110f9575b50505050509050915091509091565b60606111278261132b565b50600061113261181a565b90506000815111611152576040518060200160405280600081525061117d565b8061115c8461183a565b60405160200161116d9291906121bb565b6040516020818303038152906040525b9392505050565b6008818154811061119457600080fd5b600091825260209091200154905081565b6001600160a01b03918216600090815260056020908152604080832093909416825291909152205460ff1690565b6111db61146a565b6001600160a01b03811661120557604051631e4fbdf760e01b8152600060048201526024016107db565b610e8981611497565b6009818154811061119457600080fd5b336000908152600b6020526040902054811161127c5760405162461bcd60e51b815260206004820152601860248201527f4e657720636f756e74206d75737420626520686967686572000000000000000060448201526064016107db565b336000818152600b602052604090819020839055517f2606240b0bb278332febee5afb0bfd557541746da03c4d065a01d8a3d434b2ba906112c09084815260200190565b60405180910390a26112d233826118cd565b610e893361152d565b60006001600160e01b031982166380ac58cd60e01b148061130c57506001600160e01b03198216635b5e139f60e01b145b806106e557506301ffc9a760e01b6001600160e01b03198316146106e5565b6000818152600260205260408120546001600160a01b0316806106e557604051637e27328960e01b8152600481018490526024016107db565b61086083838360016119b5565b6000828152600260205260408120546001600160a01b039081169083161561139e5761139e818486611abb565b6001600160a01b038116156113dc576113bb6000856000806119b5565b6001600160a01b038116600090815260036020526040902080546000190190555b6001600160a01b0385161561140b576001600160a01b0385166000908152600360205260409020805460010190555b60008481526002602052604080822080546001600160a01b0319166001600160a01b0389811691821790925591518793918516917fddf252ad1be2c89b69c2b068fc378daa952ba7f163c4a11628f55a4df523b3ef91a4949350505050565b6006546001600160a01b0316331461086d5760405163118cdaa760e01b81523360048201526024016107db565b600680546001600160a01b038381166001600160a01b0319831681179093556040519116919082907f8be0079c531659141344cd1fd0a4f28419497f9722a3daafe3b4186f6b6457e090600090a35050565b60026007540361150c57604051633ee5aeb560e01b815260040160405180910390fd5b6002600755565b6107b1828260405180602001604052806000815250611b1f565b60005b6008548110156107b15760006008828154811061154f5761154f61214c565b60009182526020808320909101546001600160a01b0386168352600b90915260409091205490915081118015906115ad57506001600160a01b0383166000908152600b6020908152604080832084845260030190915290205460ff16155b1561163d576001600160a01b0383166000818152600b602090815260408083208584526003019091529020805460ff19166001179055600980547fdf8c6d418e792947f84a88f64b7520dfdc830a74b334f9f6fa8801bba29286b19184918690811061161b5761161b61214c565b6000918252602091829020015460408051938452918301520160405180910390a25b50806116488161218b565b915050611530565b6001600160a01b03821661168257604051630b61174360e31b81526001600160a01b03831660048201526024016107db565b6001600160a01b03838116600081815260056020908152604080832094871680845294825291829020805460ff191686151590811790915591519182527f17307eab39ab6107e8899845ad3d59bd9653f200f220920489ca2b5937696c31910160405180910390a3505050565b6001600160a01b0383163b1561181357604051630a85bd0160e11b81526001600160a01b0384169063150b7a02906117319088908890879087906004016121ea565b6020604051808303816000875af192505050801561176c575060408051601f3d908101601f1916820190925261176991810190612227565b60015b6117d5573d80801561179a576040519150601f19603f3d011682016040523d82523d6000602084013e61179f565b606091505b5080516000036117cd57604051633250574960e11b81526001600160a01b03851660048201526024016107db565b805160208201fd5b6001600160e01b03198116630a85bd0160e11b1461181157604051633250574960e11b81526001600160a01b03851660048201526024016107db565b505b5050505050565b60606040518060600160405280602d8152602001612245602d9139905090565b6060600061184783611b37565b600101905060008167ffffffffffffffff81111561186757611867611f84565b6040519080825280601f01601f191660200182016040528015611891576020820181803683370190505b5090508181016020015b600019016f181899199a1a9b1b9c1cb0b131b232b360811b600a86061a8153600a850494508461189b57509392505050565b80156107b1576000818152600c602052604081208054916118ed8361218b565b9091555050600d54606411156107b1576000805b600d5481101561195d57836001600160a01b0316600d82815481106119285761192861214c565b6000918252602090912001546001600160a01b03160361194b576001915061195d565b806119558161218b565b915050611901565b508061086057600d80546001810182556000919091527fd7b6990105719101dabeb77144f2a3385c8033acd3af97e9423a695e81ad1eb50180546001600160a01b0385166001600160a01b0319909116179055505050565b80806119c957506001600160a01b03821615155b15611a8b5760006119d98461132b565b90506001600160a01b03831615801590611a055750826001600160a01b0316816001600160a01b031614155b8015611a185750611a1681846111a5565b155b15611a415760405163a9fbf51f60e01b81526001600160a01b03841660048201526024016107db565b8115611a895783856001600160a01b0316826001600160a01b03167f8c5be1e5ebec7d5bd14f71427d1e84f3dd0314c0f7b2291e5b200ac8c7c3b92560405160405180910390a45b505b5050600090815260046020526040902080546001600160a01b0319166001600160a01b0392909216919091179055565b611ac6838383611c0f565b610860576001600160a01b038316611af457604051637e27328960e01b8152600481018290526024016107db565b60405163177e802f60e01b81526001600160a01b0383166004820152602481018290526044016107db565b611b298383611c75565b6108603360008585856116ef565b60008072184f03e93ff9f4daa797ed6e38ed64bf6a1f0160401b8310611b765772184f03e93ff9f4daa797ed6e38ed64bf6a1f0160401b830492506040015b6d04ee2d6d415b85acef81000000008310611ba2576d04ee2d6d415b85acef8100000000830492506020015b662386f26fc100008310611bc057662386f26fc10000830492506010015b6305f5e1008310611bd8576305f5e100830492506008015b6127108310611bec57612710830492506004015b60648310611bfe576064830492506002015b600a83106106e55760010192915050565b60006001600160a01b03831615801590611c6d5750826001600160a01b0316846001600160a01b03161480611c495750611c4984846111a5565b80611c6d57506000828152600460205260409020546001600160a01b038481169116145b949350505050565b6001600160a01b038216611c9f57604051633250574960e11b8152600060048201526024016107db565b6000611cad83836000611371565b90506001600160a01b03811615610860576040516339e3563760e11b8152600060048201526024016107db565b828054828255906000526020600020908101928215611d15579160200282015b82811115611d15578235825591602001919060010190611cfa565b50611d21929150611d25565b5090565b5b80821115611d215760008155600101611d26565b6001600160e01b031981168114610e8957600080fd5b600060208284031215611d6257600080fd5b813561117d81611d3a565b60005b83811015611d88578181015183820152602001611d70565b50506000910152565b60008151808452611da9816020860160208601611d6d565b601f01601f19169290920160200192915050565b60208152600061117d6020830184611d91565b600060208284031215611de257600080fd5b5035919050565b80356001600160a01b0381168114611e0057600080fd5b919050565b60008060408385031215611e1857600080fd5b611e2183611de9565b946020939093013593505050565b600080600060608486031215611e4457600080fd5b611e4d84611de9565b9250611e5b60208501611de9565b9150604084013590509250925092565b600060208284031215611e7d57600080fd5b61117d82611de9565b60008060208385031215611e9957600080fd5b823567ffffffffffffffff80821115611eb157600080fd5b818501915085601f830112611ec557600080fd5b813581811115611ed457600080fd5b8660208260051b8501011115611ee957600080fd5b60209290920196919550909350505050565b6020808252825182820181905260009190848201906040850190845b81811015611f3c5783516001600160a01b031683529284019291840191600101611f17565b50909695505050505050565b60008060408385031215611f5b57600080fd5b611f6483611de9565b915060208301358015158114611f7957600080fd5b809150509250929050565b634e487b7160e01b600052604160045260246000fd5b60008060008060808587031215611fb057600080fd5b611fb985611de9565b9350611fc760208601611de9565b925060408501359150606085013567ffffffffffffffff80821115611feb57600080fd5b818701915087601f830112611fff57600080fd5b81358181111561201157612011611f84565b604051601f8201601f19908116603f0116810190838211818310171561203957612039611f84565b816040528281528a602084870101111561205257600080fd5b82602086016020830137600060208483010152809550505050505092959194509250565b600081518084526020808501945080840160005b838110156120a65781518752958201959082019060010161208a565b509495945050505050565b6040815260006120c46040830185612076565b82810360208401526120d68185612076565b95945050505050565b600080604083850312156120f257600080fd5b6120fb83611de9565b915061210960208401611de9565b90509250929050565b600181811c9082168061212657607f821691505b60208210810361214657634e487b7160e01b600052602260045260246000fd5b50919050565b634e487b7160e01b600052603260045260246000fd5b634e487b7160e01b600052601160045260246000fd5b818103818111156106e5576106e5612162565b60006001820161219d5761219d612162565b5060010190565b80820281158282048414176106e5576106e5612162565b600083516121cd818460208801611d6d565b8351908301906121e1818360208801611d6d565b01949350505050565b6001600160a01b038581168252841660208201526040810183905260806060820181905260009061221d90830184611d91565b9695505050505050565b60006020828403121561223957600080fd5b815161117d81611d3a56fe68747470733a2f2f617262697472756d67616d652e76657263656c2e6170702f6170692f6d657461646174612fa2646970667358221220761b9301fec5c4410e8668b57ecf3785b7bdc93bd05ffc19500c30f212b907f564736f6c63430008140033",
  "linkReferences": {},
  "deployedLinkReferences": {}
}